{
  "contractName": "PatientRecord",
  "abi": [
    {
      "anonymous": false,
      "inputs": [
        {
          "indexed": true,
          "internalType": "address",
          "name": "previousOwner",
          "type": "address"
        },
        {
          "indexed": true,
          "internalType": "address",
          "name": "newOwner",
          "type": "address"
        }
      ],
      "name": "OwnershipTransferred",
      "type": "event"
    },
    {
      "anonymous": false,
      "inputs": [
        {
          "indexed": true,
          "internalType": "address",
          "name": "patient",
          "type": "address"
        },
        {
          "indexed": false,
          "internalType": "uint256",
          "name": "patientID",
          "type": "uint256"
        }
      ],
      "name": "PatientRegistered",
      "type": "event"
    },
    {
      "anonymous": false,
      "inputs": [
        {
          "indexed": true,
          "internalType": "address",
          "name": "patient",
          "type": "address"
        },
        {
          "indexed": false,
          "internalType": "uint256",
          "name": "amount",
          "type": "uint256"
        }
      ],
      "name": "Withdrawal",
      "type": "event"
    },
    {
      "anonymous": false,
      "inputs": [
        {
          "indexed": true,
          "internalType": "address",
          "name": "patient",
          "type": "address"
        },
        {
          "indexed": false,
          "internalType": "uint256",
          "name": "medicalRecordID",
          "type": "uint256"
        }
      ],
      "name": "medicalRecordCreated",
      "type": "event"
    },
    {
      "anonymous": false,
      "inputs": [
        {
          "indexed": true,
          "internalType": "address",
          "name": "requester",
          "type": "address"
        },
        {
          "indexed": false,
          "internalType": "uint256",
          "name": "medicalRecordID",
          "type": "uint256"
        },
        {
          "indexed": false,
          "internalType": "uint256",
          "name": "price",
          "type": "uint256"
        }
      ],
      "name": "medicalRecordPurchased",
      "type": "event"
    },
    {
      "anonymous": false,
      "inputs": [
        {
          "indexed": true,
          "internalType": "address",
          "name": "requester",
          "type": "address"
        },
        {
          "indexed": false,
          "internalType": "uint256",
          "name": "requesterID",
          "type": "uint256"
        }
      ],
      "name": "requesterRegistered",
      "type": "event"
    },
    {
      "inputs": [],
      "name": "owner",
      "outputs": [
        {
          "internalType": "address",
          "name": "",
          "type": "address"
        }
      ],
      "stateMutability": "view",
      "type": "function",
      "constant": true
    },
    {
      "inputs": [
        {
          "internalType": "address",
          "name": "",
          "type": "address"
        }
      ],
      "name": "patients",
      "outputs": [
        {
          "internalType": "uint256",
          "name": "id",
          "type": "uint256"
        },
        {
          "internalType": "bytes32",
          "name": "ageRange",
          "type": "bytes32"
        },
        {
          "internalType": "enum PatientRecord.Gender",
          "name": "gender",
          "type": "uint8"
        },
        {
          "internalType": "string",
          "name": "region",
          "type": "string"
        },
        {
          "internalType": "address",
          "name": "userAddress",
          "type": "address"
        }
      ],
      "stateMutability": "view",
      "type": "function",
      "constant": true
    },
    {
      "inputs": [
        {
          "internalType": "address",
          "name": "",
          "type": "address"
        },
        {
          "internalType": "uint256",
          "name": "",
          "type": "uint256"
        }
      ],
      "name": "patientsMedicalRecords",
      "outputs": [
        {
          "internalType": "uint256",
          "name": "",
          "type": "uint256"
        }
      ],
      "stateMutability": "view",
      "type": "function",
      "constant": true
    },
    {
      "inputs": [],
      "name": "renounceOwnership",
      "outputs": [],
      "stateMutability": "nonpayable",
      "type": "function"
    },
    {
      "inputs": [
        {
          "internalType": "address",
          "name": "",
          "type": "address"
        },
        {
          "internalType": "uint256",
          "name": "",
          "type": "uint256"
        }
      ],
      "name": "requesterPurchasedMedicalRecord",
      "outputs": [
        {
          "internalType": "bool",
          "name": "",
          "type": "bool"
        }
      ],
      "stateMutability": "view",
      "type": "function",
      "constant": true
    },
    {
      "inputs": [
        {
          "internalType": "address",
          "name": "",
          "type": "address"
        },
        {
          "internalType": "uint256",
          "name": "",
          "type": "uint256"
        }
      ],
      "name": "requestersMedicalRecords",
      "outputs": [
        {
          "internalType": "uint256",
          "name": "",
          "type": "uint256"
        }
      ],
      "stateMutability": "view",
      "type": "function",
      "constant": true
    },
    {
      "inputs": [
        {
          "internalType": "address",
          "name": "newOwner",
          "type": "address"
        }
      ],
      "name": "transferOwnership",
      "outputs": [],
      "stateMutability": "nonpayable",
      "type": "function"
    },
    {
      "inputs": [
        {
          "internalType": "address",
          "name": "patientAddr",
          "type": "address"
        },
        {
          "internalType": "string",
          "name": "region",
          "type": "string"
        },
        {
          "internalType": "bytes32",
          "name": "ageRange",
          "type": "bytes32"
        },
        {
          "internalType": "enum PatientRecord.Gender",
          "name": "gender",
          "type": "uint8"
        }
      ],
      "name": "registerPatient",
      "outputs": [
        {
          "internalType": "uint256",
          "name": "",
          "type": "uint256"
        }
      ],
      "stateMutability": "nonpayable",
      "type": "function"
    },
    {
      "inputs": [
        {
          "internalType": "address",
          "name": "requesterAddr",
          "type": "address"
        },
        {
          "internalType": "enum PatientRecord.RequesterType",
          "name": "requesterType",
          "type": "uint8"
        },
        {
          "internalType": "bytes32",
          "name": "name",
          "type": "bytes32"
        },
        {
          "internalType": "string",
          "name": "region",
          "type": "string"
        }
      ],
      "name": "registerRequester",
      "outputs": [
        {
          "internalType": "uint256",
          "name": "",
          "type": "uint256"
        }
      ],
      "stateMutability": "nonpayable",
      "type": "function"
    },
    {
      "inputs": [
        {
          "internalType": "string",
          "name": "IPFShash",
          "type": "string"
        },
        {
          "internalType": "string",
          "name": "recordType",
          "type": "string"
        },
        {
          "internalType": "uint256",
          "name": "price",
          "type": "uint256"
        }
      ],
      "name": "createMedicalRecord",
      "outputs": [
        {
          "internalType": "uint256",
          "name": "",
          "type": "uint256"
        }
      ],
      "stateMutability": "nonpayable",
      "type": "function"
    },
    {
      "inputs": [
        {
          "internalType": "uint256",
          "name": "medicalRecordID",
          "type": "uint256"
        }
      ],
      "name": "BuyMedicalRecord",
      "outputs": [
        {
          "internalType": "bool",
          "name": "",
          "type": "bool"
        }
      ],
      "stateMutability": "payable",
      "type": "function",
      "payable": true
    },
    {
      "inputs": [
        {
          "internalType": "uint256",
          "name": "amount",
          "type": "uint256"
        }
      ],
      "name": "Withdraw",
      "outputs": [],
      "stateMutability": "nonpayable",
      "type": "function"
    },
    {
      "inputs": [
        {
          "internalType": "address",
          "name": "account",
          "type": "address"
        }
      ],
      "name": "balanceOf",
      "outputs": [
        {
          "internalType": "uint256",
          "name": "",
          "type": "uint256"
        }
      ],
      "stateMutability": "view",
      "type": "function",
      "constant": true
    },
    {
      "inputs": [],
      "name": "patientsCounter",
      "outputs": [
        {
          "internalType": "uint256",
          "name": "",
          "type": "uint256"
        }
      ],
      "stateMutability": "view",
      "type": "function",
      "constant": true
    },
    {
      "inputs": [],
      "name": "requestersCounter",
      "outputs": [
        {
          "internalType": "uint256",
          "name": "",
          "type": "uint256"
        }
      ],
      "stateMutability": "view",
      "type": "function",
      "constant": true
    },
    {
      "inputs": [],
      "name": "medicalRecordsCounter",
      "outputs": [
        {
          "internalType": "uint256",
          "name": "",
          "type": "uint256"
        }
      ],
      "stateMutability": "view",
      "type": "function",
      "constant": true
    },
    {
      "inputs": [],
      "name": "getMedicalRecords",
      "outputs": [
        {
          "components": [
            {
              "internalType": "uint256",
              "name": "id",
              "type": "uint256"
            },
            {
              "internalType": "string",
              "name": "IPFShash",
              "type": "string"
            },
            {
              "internalType": "address",
              "name": "patient",
              "type": "address"
            },
            {
              "internalType": "string",
              "name": "recordType",
              "type": "string"
            },
            {
              "internalType": "uint256",
              "name": "price",
              "type": "uint256"
            }
          ],
          "internalType": "struct PatientRecord.MedicalRecord[]",
          "name": "",
          "type": "tuple[]"
        }
      ],
      "stateMutability": "view",
      "type": "function",
      "constant": true
    }
  ],
  "bytecode": "0x608060405234801561001057600080fd5b5061001a3361001f565b61006f565b600080546001600160a01b038381166001600160a01b0319831681178455604051919092169283917f8be0079c531659141344cd1fd0a4f28419497f9722a3daafe3b4186f6b6457e09190a35050565b61166f8061007e6000396000f3fe6080604052600436106100fe5760003560e01c806370a08231116100955780639453353e116100645780639453353e146102ca5780639dda4a28146102ea578063b84c6c35146102ff578063f2d59b7d1461031f578063f2fde38b1461033f57600080fd5b806370a0823114610237578063715018a61461026d57806375f95c7d146102825780638da5cb5b146102a257600080fd5b80632a940f55116100d15780632a940f55146101cb5780635b6b431d146101de57806369ab5585146102005780636aea20d31461021557600080fd5b80630869cfbc1461010357806314c11bbe1461013d5780631c5d2971146101605780631cf7dee0146101ab575b600080fd5b34801561010f57600080fd5b5061012361011e36600461115f565b61035f565b6040516101349594939291906111e4565b60405180910390f35b34801561014957600080fd5b50610152610425565b604051908152602001610134565b34801561016c57600080fd5b5061019b61017b366004611241565b600a60209081526000928352604080842090915290825290205460ff1681565b6040519015158152602001610134565b3480156101b757600080fd5b506101526101c6366004611241565b610435565b61019b6101d936600461126b565b610466565b3480156101ea57600080fd5b506101fe6101f936600461126b565b61070e565b005b34801561020c57600080fd5b50610152610864565b34801561022157600080fd5b5061022a61086f565b6040516101349190611284565b34801561024357600080fd5b5061015261025236600461115f565b6001600160a01b031660009081526004602052604090205490565b34801561027957600080fd5b506101fe610ab2565b34801561028e57600080fd5b5061015261029d3660046113d9565b610ae8565b3480156102ae57600080fd5b506000546040516001600160a01b039091168152602001610134565b3480156102d657600080fd5b506101526102e5366004611241565b610cb7565b3480156102f657600080fd5b50610152610cd3565b34801561030b57600080fd5b5061015261031a366004611446565b610cde565b34801561032b57600080fd5b5061015261033a3660046114b4565b610e54565b34801561034b57600080fd5b506101fe61035a36600461115f565b610fbf565b60056020526000908152604090208054600182015460028301546003840180549394929360ff909216929161039390611522565b80601f01602080910402602001604051908101604052809291908181526020018280546103bf90611522565b801561040c5780601f106103e15761010080835404028352916020019161040c565b820191906000526020600020905b8154815290600101906020018083116103ef57829003601f168201915b505050600490930154919250506001600160a01b031685565b600061043060035490565b905090565b6009602052816000526040600020818154811061045157600080fd5b90600052602060002001600091509150505481565b336000908152600760205260408120600401546001600160a01b03166104d35760405162461bcd60e51b815260206004820152601b60248201527f50617469656e745265636f72643a4f6e6c79207271756573746572000000000060448201526064015b60405180910390fd5b600082815260086020526040902060040154348111156105355760405162461bcd60e51b815260206004820152601860248201527f50617469656e745265636f72643a6e6f7420656e6f756768000000000000000060448201526064016104ca565b82336000858152600860205260409020600201546001600160a01b031661059e5760405162461bcd60e51b815260206004820152601f60248201527f50617469656e745265636f72643a5265636f7264206e6f74206578697369740060448201526064016104ca565b336000908152600a6020908152604080832088845290915290205460ff16156106095760405162461bcd60e51b815260206004820152601c60248201527f50617469656e745265636f72643a616c726561647920426f756768740000000060448201526064016104ca565b60008581526008602090815260408083206004808201546002909201546001600160a01b03168552909252822080549192839261064790849061156d565b9091555050336000818152600a602090815260408083208a8452825291829020805460ff1916600117905581518981529081018490527fc821cb20628b42e4799c0cba8bdda3af46b306c1ed4830a7e9892d8dbfd49e35910160405180910390a26001945050600082815260086020526040812060040154906106ca8234611585565b6040519091506001600160a01b0384169082156108fc029083906000818181858888f19350505050158015610703573d6000803e3d6000fd5b505050505050919050565b3361072b5760405162461bcd60e51b81526004016104ca9061159c565b6000811161077b5760405162461bcd60e51b815260206004820152601c60248201527f50617469656e745265636f72643a416d6f756e74206973205a65726f0000000060448201526064016104ca565b336000908152600460205260409020548111156107da5760405162461bcd60e51b815260206004820181905260248201527f50617469656e745265636f72643a696e73756666696369656e742046756e647360448201526064016104ca565b33600090815260046020526040812080548392906107f9908490611585565b9091555050604051339082156108fc029083906000818181858888f1935050505015801561082b573d6000803e3d6000fd5b5060405181815233907f7fcf532c15f0a6db0bd6d0e038bea71d30d808c7d98cb3bf7268a95bf5081b659060200160405180910390a250565b600061043060015490565b6060600061087c60035490565b67ffffffffffffffff81111561089457610894611336565b60405190808252806020026020018201604052801561090057816020015b6108ed6040518060a00160405280600081526020016060815260200160006001600160a01b0316815260200160608152602001600081525090565b8152602001906001900390816108b25790505b50905060005b8151811015610aac57600860008281526020019081526020016000206040518060a00160405290816000820154815260200160018201805461094790611522565b80601f016020809104026020016040519081016040528092919081815260200182805461097390611522565b80156109c05780601f10610995576101008083540402835291602001916109c0565b820191906000526020600020905b8154815290600101906020018083116109a357829003601f168201915b505050918352505060028201546001600160a01b031660208201526003820180546040909201916109f090611522565b80601f0160208091040260200160405190810160405280929190818152602001828054610a1c90611522565b8015610a695780601f10610a3e57610100808354040283529160200191610a69565b820191906000526020600020905b815481529060010190602001808311610a4c57829003601f168201915b50505050508152602001600482015481525050828281518110610a8e57610a8e6115d3565b60200260200101819052508080610aa4906115e9565b915050610906565b50919050565b6000546001600160a01b03163314610adc5760405162461bcd60e51b81526004016104ca90611604565b610ae6600061105a565b565b336000908152600560205260408120600401546001600160a01b0316610b505760405162461bcd60e51b815260206004820152601a60248201527f50617469656e745265636f72643a4f6e6c792070617469656e7400000000000060448201526064016104ca565b60008211610ba05760405162461bcd60e51b815260206004820152601b60248201527f50617469656e745265636f72643a5072696365206973205a65726f000000000060448201526064016104ca565b6000610bab60035490565b6040805160a0810182528281526020808201898152338385015260608301899052608083018890526000858152600883529390932082518155925180519495509193610bfd92600185019201906110aa565b5060408201516002820180546001600160a01b0319166001600160a01b0390921691909117905560608201518051610c3f9160038401916020909101906110aa565b50608091909101516004909101553360009081526006602090815260408220805460018082018355918452919092200182905560038054909101905560405181815233907ed3d9e7d7e9c4896ced96b3edb6551c1bcbe67b99d5fd1ce80ef747fe3ccd079060200160405180910390a2949350505050565b6006602052816000526040600020818154811061045157600080fd5b600061043060025490565b600080546001600160a01b03163314610d095760405162461bcd60e51b81526004016104ca90611604565b6001600160a01b038516610d2f5760405162461bcd60e51b81526004016104ca9061159c565b6000610d3a60025490565b90506040518060a00160405280828152602001866002811115610d5f57610d5f611181565b8152602080820187905260408083018790526001600160a01b038a166060909301839052600092835260078252909120825181559082015160018083018054909160ff1990911690836002811115610db957610db9611181565b02179055506040820151600282015560608201518051610de39160038401916020909101906110aa565b5060809190910151600490910180546001600160a01b0319166001600160a01b03928316179055600280546001019055604051828152908716907f7effd31847063854180f3c80afba24e618af345efd30519c132a538fcfc829a5906020015b60405180910390a295945050505050565b600080546001600160a01b03163314610e7f5760405162461bcd60e51b81526004016104ca90611604565b6001600160a01b038516610ea55760405162461bcd60e51b81526004016104ca9061159c565b6000610eb060015490565b90506040518060a00160405280828152602001858152602001846001811115610edb57610edb611181565b815260208082018890526001600160a01b038916604092830181905260009081526005825282902083518155908301516001808301919091559183015160028201805492939192909160ff19909116908381811115610f3c57610f3c611181565b021790555060608201518051610f5c9160038401916020909101906110aa565b5060809190910151600490910180546001600160a01b0319166001600160a01b039283161790556001805481019055604051828152908716907f1a1d2aec173b297857456d20be2671ece280e73079451a2a16142e4f58751e5c90602001610e43565b6000546001600160a01b03163314610fe95760405162461bcd60e51b81526004016104ca90611604565b6001600160a01b03811661104e5760405162461bcd60e51b815260206004820152602660248201527f4f776e61626c653a206e6577206f776e657220697320746865207a65726f206160448201526564647265737360d01b60648201526084016104ca565b6110578161105a565b50565b600080546001600160a01b038381166001600160a01b0319831681178455604051919092169283917f8be0079c531659141344cd1fd0a4f28419497f9722a3daafe3b4186f6b6457e09190a35050565b8280546110b690611522565b90600052602060002090601f0160209004810192826110d8576000855561111e565b82601f106110f157805160ff191683800117855561111e565b8280016001018555821561111e579182015b8281111561111e578251825591602001919060010190611103565b5061112a92915061112e565b5090565b5b8082111561112a576000815560010161112f565b80356001600160a01b038116811461115a57600080fd5b919050565b60006020828403121561117157600080fd5b61117a82611143565b9392505050565b634e487b7160e01b600052602160045260246000fd5b6000815180845260005b818110156111bd576020818501810151868301820152016111a1565b818111156111cf576000602083870101525b50601f01601f19169290920160200192915050565b85815284602082015260006002851061120d57634e487b7160e01b600052602160045260246000fd5b84604083015260a0606083015261122760a0830185611197565b905060018060a01b03831660808301529695505050505050565b6000806040838503121561125457600080fd5b61125d83611143565b946020939093013593505050565b60006020828403121561127d57600080fd5b5035919050565b60006020808301818452808551808352604092508286019150828160051b87010184880160005b8381101561132857603f19898403018552815160a08151855288820151818a8701526112d982870182611197565b838a01516001600160a01b0316878b0152606080850151888303828a015291935091506113068382611197565b60809485015197909401969096525050948701949250908601906001016112ab565b509098975050505050505050565b634e487b7160e01b600052604160045260246000fd5b600082601f83011261135d57600080fd5b813567ffffffffffffffff8082111561137857611378611336565b604051601f8301601f19908116603f011681019082821181831017156113a0576113a0611336565b816040528381528660208588010111156113b957600080fd5b836020870160208301376000602085830101528094505050505092915050565b6000806000606084860312156113ee57600080fd5b833567ffffffffffffffff8082111561140657600080fd5b6114128783880161134c565b9450602086013591508082111561142857600080fd5b506114358682870161134c565b925050604084013590509250925092565b6000806000806080858703121561145c57600080fd5b61146585611143565b935060208501356003811061147957600080fd5b925060408501359150606085013567ffffffffffffffff81111561149c57600080fd5b6114a88782880161134c565b91505092959194509250565b600080600080608085870312156114ca57600080fd5b6114d385611143565b9350602085013567ffffffffffffffff8111156114ef57600080fd5b6114fb8782880161134c565b9350506040850135915060608501356002811061151757600080fd5b939692955090935050565b600181811c9082168061153657607f821691505b60208210811415610aac57634e487b7160e01b600052602260045260246000fd5b634e487b7160e01b600052601160045260246000fd5b6000821982111561158057611580611557565b500190565b60008282101561159757611597611557565b500390565b6020808252601a908201527f50617469656e745265636f72643a5a65726f2061646472657373000000000000604082015260600190565b634e487b7160e01b600052603260045260246000fd5b60006000198214156115fd576115fd611557565b5060010190565b6020808252818101527f4f776e61626c653a2063616c6c6572206973206e6f7420746865206f776e657260408201526060019056fea2646970667358221220816485052bc1a4523b9798551ca7ae1faa0e9da3f8050843fa1e154720fef21164736f6c634300080a0033",
  "immutableReferences": {},
  "source": "// SPDX-License-Identifier: MIT\npragma solidity ^0.8.0;\nimport \"@openzeppelin/contracts/utils/Counters.sol\";\nimport \"@openzeppelin/contracts/access/Ownable.sol\";\n\n//import \"@openzeppelin/contracts/token/ERC20/IERC20.sol;\n\ncontract PatientRecord is Ownable {\n    using Counters for Counters.Counter;\n    // ** Enums **\n    enum Gender {\n        Male,\n        Female\n    }\n    enum RequesterType {\n        Company,\n        Doctor,\n        ResearchStudent\n    }\n    struct Requester {\n        uint256 id;\n        RequesterType requesterType;\n        bytes32 name;\n        string region;\n        address userAddress;\n    }\n    struct Patient {\n        uint256 id;\n        //bytes32 name;\n        bytes32 ageRange;\n        Gender gender;\n        string region;\n        address userAddress;\n    }\n\n    struct MedicalRecord {\n        uint256 id;\n        string IPFShash;\n        address patient;\n        string recordType;\n        uint256 price;\n    }\n\n    //** State Variables **\n    Counters.Counter private _patientsCounter;\n    Counters.Counter private _requestersCounter;\n    Counters.Counter private _medicalRecordsCounter;\n\n    mapping(address => uint256) private balance;\n    mapping(address => Patient) public patients; // registering all patients\n    //mapping(uint256 => address) public idToPatientAddress;\n    mapping(address => uint256[]) public patientsMedicalRecords;\n    mapping(address => Requester) requesters; // users who buy the medical records ex: pharma, doctors, reserchers etc\n    //mapping(uint256 => address) idTorequesterAddress; // users who buy the medical records ex: pharma, doctors, reserchers etc\n    mapping(uint256 => MedicalRecord) medicalRecords; // mapping to patient medicald records. patient can have multiple records\n    mapping(address => uint256[]) public requestersMedicalRecords;\n    mapping(address => mapping(uint256 => bool))\n        public requesterPurchasedMedicalRecord;\n\n    event PatientRegistered(address indexed patient, uint256 patientID);\n    event requesterRegistered(address indexed requester, uint256 requesterID);\n    event medicalRecordCreated(\n        address indexed patient,\n        uint256 medicalRecordID\n    );\n    event medicalRecordPurchased(\n        address indexed requester,\n        uint256 medicalRecordID,\n        uint256 price\n    );\n    event Withdrawal(address indexed patient, uint256 amount);\n    /**\n     * @dev Throws if called by any account not a registered patient.\n     */\n    modifier onlyPatient() {\n        //check if caller is Patient\n        require(\n            patients[_msgSender()].userAddress != address(0),\n            \"PatientRecord:Only patient\"\n        );\n        _;\n    }\n    /**\n    * @dev Throws if requester address did not purchase medical record first.\n     \n    */\n    modifier isAuthorized(uint256 _medicalRecordID, address _requester) {\n        require(\n            requesterPurchasedMedicalRecord[_requester][_medicalRecordID],\n            \"PatientRecord:Not authorized\"\n        );\n        _;\n    }\n\n    modifier onlyRequester() {\n        //check if caller is Patient\n        require(\n            requesters[_msgSender()].userAddress != address(0),\n            \"PatientRecord:Only rquester\"\n        );\n        _;\n    }\n    /**\n    * @dev Throws if sent eth value less than the price.\n     \n    */\n    modifier paidEnough(uint256 _price) {\n        require(msg.value >= _price, \"PatientRecord:not enough\");\n        _;\n    }\n    /**\n    * @dev returns any extra eth sent .\n     \n    */\n    modifier checkValue(uint256 _medicalRecordID, address _buyer) {\n        _;\n        uint256 _price = medicalRecords[_medicalRecordID].price;\n        uint256 amountToReturn = msg.value - _price;\n        payable(_buyer).transfer(amountToReturn);\n    }\n\n    function registerPatient(\n        address patientAddr,\n        string memory region,\n        bytes32 ageRange,\n        Gender gender\n    ) public onlyOwner returns (uint256) {\n        require(patientAddr != address(0), \"PatientRecord:Zero address\");\n        uint256 id = _patientsCounter.current();\n        patients[patientAddr] = Patient({\n            id: id,\n            ageRange: ageRange,\n            gender: gender,\n            region: region,\n            userAddress: patientAddr\n        });\n        _patientsCounter.increment();\n        emit PatientRegistered(patientAddr, id);\n        return id;\n    }\n\n    function registerRequester(\n        address requesterAddr,\n        RequesterType requesterType,\n        bytes32 name,\n        string memory region\n    ) public onlyOwner returns (uint256) {\n        require(requesterAddr != address(0), \"PatientRecord:Zero address\");\n        uint256 id = _requestersCounter.current();\n        requesters[requesterAddr] = Requester({\n            id: id,\n            name: name,\n            requesterType: requesterType,\n            region: region,\n            userAddress: requesterAddr\n        });\n\n        _requestersCounter.increment();\n        emit requesterRegistered(requesterAddr, id);\n        return id;\n    }\n\n    function createMedicalRecord(\n        string memory IPFShash,\n        string memory recordType,\n        uint256 price\n    ) public onlyPatient returns (uint256) {\n        require(price > 0, \"PatientRecord:Price is Zero\");\n        uint256 id = _medicalRecordsCounter.current();\n        medicalRecords[id] = MedicalRecord(\n            id,\n            IPFShash,\n            msg.sender,\n            recordType,\n            price\n        );\n        patientsMedicalRecords[_msgSender()].push(id);\n        _medicalRecordsCounter.increment();\n        emit medicalRecordCreated(_msgSender(), id);\n        return id;\n    }\n\n    function BuyMedicalRecord(uint256 medicalRecordID)\n        public\n        payable\n        onlyRequester\n        paidEnough(medicalRecords[medicalRecordID].price)\n        checkValue(medicalRecordID, _msgSender())\n        returns (bool)\n    {\n        require(\n            medicalRecords[medicalRecordID].patient != address(0),\n            \"PatientRecord:Record not exisit\"\n        );\n        require(\n            !requesterPurchasedMedicalRecord[_msgSender()][medicalRecordID],\n            \"PatientRecord:already Bought\"\n        );\n\n        uint256 price = medicalRecords[medicalRecordID].price;\n        balance[medicalRecords[medicalRecordID].patient] += price;\n        requesterPurchasedMedicalRecord[_msgSender()][medicalRecordID] = true;\n        emit medicalRecordPurchased(_msgSender(), medicalRecordID, price);\n        return true;\n    }\n\n    function Withdraw(uint256 amount) public {\n        require(msg.sender != address(0), \"PatientRecord:Zero address\");\n        require(amount > 0, \"PatientRecord:Amount is Zero\");\n        require(\n            balance[_msgSender()] >= amount,\n            \"PatientRecord:insufficient Funds\"\n        );\n        balance[_msgSender()] -= amount;\n        payable(_msgSender()).transfer(amount);\n        emit Withdrawal(_msgSender(), amount);\n    }\n\n    function balanceOf(address account) public view returns (uint256) {\n        return balance[account];\n    }\n\n    function patientsCounter() public view returns (uint256) {\n        return _patientsCounter.current();\n    }\n\n    function requestersCounter() public view returns (uint256) {\n        return _requestersCounter.current();\n    }\n\n    function medicalRecordsCounter() public view returns (uint256) {\n        return _medicalRecordsCounter.current();\n    }\n\n    /* function getMedicalRecords() public view returns (MedicalRecord[] memory) {\n        MedicalRecord[] memory medicalRecords = new MedicalRecord[](\n            _medicalRecordsCounter.current()\n        );\n        for (uint256 i = 0; i < medicalRecords.length; i++) {\n            medicalRecords[i] = medicalRecords[i];\n        }\n        return medicalRecords;\n    } */\n\n    function getMedicalRecords() public view returns (MedicalRecord[] memory) {\n        MedicalRecord[] memory _medicalRecords = new MedicalRecord[](\n            _medicalRecordsCounter.current()\n        );\n        for (uint256 i = 0; i < _medicalRecords.length; i++) {\n            _medicalRecords[i] = medicalRecords[i];\n        }\n        return _medicalRecords;\n    }\n\n    /*     function getMedicalRecords(uint256 id)\n        public\n        view\n        returns (MedicalRecord memory)\n    {\n         MedicalRecord[] memory _medicalRecords = new MedicalRecord[](\n            _medicalRecordsCounter.current()\n        );\n        for (uint256 i = 0; i < _medicalRecords.length; i++) {\n            _medicalRecords[i] = medicalRecords[i];\n        }  \n        return medicalRecords[id];\n    } */\n\n    /*    function getMedicalRecords() public view returns (uint256) {\n        MedicalRecord[] memory medicalRecords = new MedicalRecord[](\n            _medicalRecordsCounter.current()\n        );\n        for (uint256 i = 0; i < medicalRecords.length; i++) {\n            medicalRecords[i] = medicalRecords[i];\n        }\n        return medicalRecords.length;\n    } */\n}\n",
  "sourcePath": "/home/kk/Blockchain/PatientScan/truffle/contracts/patientRecord.sol",
  "compiler": {
    "name": "solc",
    "version": "0.8.10+commit.fc410830.Emscripten.clang"
  },
  "schemaVersion": "3.4.3",
  "updatedAt": "2021-11-30T16:29:56.342Z",
  "networkType": "ethereum",
  "devdoc": {
    "kind": "dev",
    "methods": {
      "owner()": {
        "details": "Returns the address of the current owner."
      },
      "renounceOwnership()": {
        "details": "Leaves the contract without owner. It will not be possible to call `onlyOwner` functions anymore. Can only be called by the current owner. NOTE: Renouncing ownership will leave the contract without an owner, thereby removing any functionality that is only available to the owner."
      },
      "transferOwnership(address)": {
        "details": "Transfers ownership of the contract to a new account (`newOwner`). Can only be called by the current owner."
      }
    },
    "version": 1
  },
  "userdoc": {
    "kind": "user",
    "methods": {},
    "version": 1
  }
}